:02000002D0002C
:1040000000400D000CA00D00000006000C00050192
:084010000401BD0B00000000DB
:04401800648B0D00A8
:1040200009480A49884208B505D0094A824202D0A7
:10403000121A04F0ABFC0748074A0021121A04F0D8
:10404000B3FC014808BD00BFF4E403207C9F0D00D1
:104050005CE5032060E50320F4E7032070B5074E1C
:10406000074C02F069FEA41BA4080025A54200D15C
:1040700070BD56F8043B98470135F7E74C9F0D009B
:10408000709F0D0000F010BC08B500F029FDBDE8E0
:10409000084002F013BE02F033BA02F031BA02F067
:1040A00037BA000008B5034A00210C2002F07CF961
:1040B000FEE700BFA9600D000078B0FA80F040096B
:1040C000704701230370704737B5044608460191D5
:1040D00004F0A8FC6368A268451CE818904208D860
:1040E000206801992A46184404F050FC606828446E
:1040F000606003B030BD000038B584690A4B0360CE
:1041000005467CB16368013B63605BB92368204668
:104110009B689847A368013BA3601BB923682046AE
:10412000DB689847284638BD989C0D0008B501F01B
:10413000C3FF034B1860BDE8084002F0D1B900BFCF
:10414000D8E7032003682BB14268934202D2184695
:1041500004F006BC0020704738B50568044645B138
:1041600043689D4205D2284604F05CFC01300544BA
:104170002560204638BD000038B504460B46D0E91E
:1041800001012568044A091A284402F0D1F963683C
:1041900001300344636038BD788B0D0038B50446A8
:1041A0000B46D0E901012568044A091A284402F0A7
:1041B000BFF9636801300344636038BD7B8B0D0039
:1041C00008B500234377006803F0DCF9BDE8084038
:1041D00001F0F4BE2DE9F04301EB02098FB049452F
:1041E000CDE9051980460D46164680F0928005A857
:1041F0000F88FFF7B1FF0368994540F28A8005A850
:10420000FFF7A0FF47F276239F42C4B200F0A980D7
:1042100027D847F261239F427ED047F264239F4212
:1042200042D046F670539F4228D1634E634FDFF869
:10423000A081059B99456CD905A8FFF783FFC4B2FF
:1042400005A8FFF789FF059D3146284604F0D8FBF5
:104250000146E0B9204603F09DFB05A8FFF77CFF6F
:10426000E7E747F264739F423FD047F276739F427D
:1042700000F0878047F261739F425FD00023CDE951
:10428000013302220092B8F81A20194629E0394673
:10429000284604F0B5FB28B14146284604F0B0FB9F
:1042A0000028DAD10121D5E70AAB4549079307A8D1
:1042B00010230025CDE90853FFF706FF07A8214684
:1042C000FFF75AFF204603F08FFB014607A8FFF7D0
:1042D00065FF089BCDE90155013B0093079B2A46EA
:1042E0001421404600F018FB13E005A8FFF734FF47
:1042F000036899450DD9A4B20121204603F04AFB79
:1043000005A8FFF71FFF011E18BF0121204603F07B
:1043100052FB0FB0BDE8F0830AAB079307A8102348
:1043200028490025CDE90853FFF7CEFE07A821460E
:10433000FFF722FF204603F06AFBC6E705A8FFF758
:104340000BFF03689945E4D9A4B20121204603F08C
:1043500021FB05A8FFF7F6FE0146204603F06EFBA1
:10436000D7E720468DF8284001F02AFE03460AA828
:1043700023B1154A934201D09847CAE701F01CFEC9
:10438000C7E705A8FFF7E8FE059B8DF81C405D1BFD
:10439000751B2046CDE90A350C9501F01BFE03463E
:1043A0000AA907A823B1094A934201D09847B0E768
:1043B00001F003FEADE700BF7F8B0D00828B0D0087
:1043C0008A8B0D008D8B0D00B95F0D00BB5F0D005A
:1043D000868B0D002DE9F0418CB004AF0446052218
:1043E0000068391D02F007FCB8B3052804D000208E
:1043F0002037BD46BDE8F081B7F80520130A43EA2F
:104400000223B7F80720A7F8053099B2130A43EA48
:1044100002231FFA83F8A7F807300029E7D03B7979
:1044200023BB01F0C7FD0246E060607FB7F80730AC
:10443000C0B9B7F80510012914D1092B0FD0C82B2A
:1044400001D0042BD4D1012562612046657700F0AC
:1044500011FBFFF76BFE01F0B1FD0120C8E703235C
:104460006377C5E7581F18BF0120C1E7B8F5806F13
:1044700003D92046FFF7A4FEEFE708F1080323F075
:1044800007036E46ADEB030D04AD20684246294696
:1044900002F0B1FB80454FF000007FD1B7F8073044
:1044A000E85401F087FD3B79E060142B00F0A68012
:1044B00048D80F2B00F0A28007D8022B48D0062B3B
:1044C00051D02046FFF77CFE58E0112BF9D1002394
:1044D0003B70B7F807302B449D42C7E903534DD2D8
:1044E00007F10C00D5F80080FFF736FEFB68B7F83F
:1044F00007105D1B4D1BC7E905357B68FD61C3F3E4
:104500000F236383644B984500F0BF8000F28C80DA
:10451000A3F57F236FF400721344984500F09D804B
:1045200079D8A3F50033063B984500F09C8003F54D
:104530000033033398456BD107F11401384601F07D
:104540003CFD65E0292B1BD0372B17D01D2BB8D194
:10455000637F43B901236377204600F08BFAFFF7AE
:10456000E5FD01F02BFD0023C821B7F805200091DF
:10457000CDE901331946204600F0CEF901200DE0C7
:10458000A3681BB9402001F0BBFFA060B7F807800B
:10459000A8444545C7E9055802D30020B54627E79A
:1045A00029464022A06804F045FAA368002583F854
:1045B0003F5007F11400FFF7CFFD036843451BD2BE
:1045C000786920B1BB69984214D204F0CDF985B264
:1045D000206802F0D7FF2368A2685A631D87002372
:1045E000637701F0E7FCA0F59C500838C4E90300AC
:1045F0006061C3E72846EAE75025E9E77B68B7F83A
:104600000720C3F30F23638329462046FFF7E2FD0B
:1046100000236383B2E7214B9845F9D107F11401D8
:10462000384601F0CAFCF3E71D4B984521D003F151
:104630009F6303F5003303F5807398451FD003F1A2
:104640006E4303F5302303F586739845E0D107F1F7
:104650001401384601F0B1FCDAE707F114013846DD
:1046600001F0ABFCD4E707F11401384601F0A5FCDA
:10467000CEE707F11401384601F09FFCC8E707F1C7
:104680001401384601F099FCC2E707F114013846DD
:1046900001F093FCBCE700BF7666730064626700BC
:1046A00061636F6E2DE9F04104468CB00D46FFF753
:1046B0003DFD637F022B00F0A880237F628B0133D6
:1046C000DBB223770AB1012516E0022BFBD8206864
:1046D00002F077FDB8B125B9206802F0F9FE002894
:1046E00011DD2046FFF776FE05460028F4D120684C
:1046F00002F048FF01F062FC237F013B237728464C
:104700000CB0BDE8F08101F055FC0646206802F0CF
:1047100058FD677F012F054629D120B966612046E3
:10472000FFF74EFDE8E7E3684FF21862F31A934291
:1047300004D92046FFF744FD0025DDE74AF6C8729C
:10474000934203D82369F31A9342BCD9636941F2B7
:104750007072F31A9342B6D90023CDE90133009366
:104760001A460621204600F0D7F86661ABE7002F15
:10477000A9D16269B21A40B141F270739A42A2D9CA
:10478000206802F0FFFE6777D6E741F288339A424D
:1047900099D9206802F0F6FED4F800C0DCF834E0C5
:1047A000BCF83880BEF1000F0BD02B464246714654
:1047B000604602F045FF431E5D425D418DB9666172
:1047C0009AE7134B06930CF120070FCF07AD0FC5E7
:1047D0003B682B704246734606A9604602F0FDFD19
:1047E000E9E76368059301261846268304F01AF961
:1047F0000022CDE90122059B009032461D21204672
:1048000000F08AF82369636176E7002577E700BF47
:10481000C89B0D002DE9F04115468CB004460435C7
:1048200040F6B8300F46984601F0C2FB0FCD01AEFE
:104830000FC62B683370676001F0BCFBA0F59C507D
:10484000083801AFC4E9030060610FCF07AE0FC69F
:104850003B68337007AF0FCF25684FF0000CC5F8E9
:1048600034C0A5F8388020350FC533682B706646F4
:1048700044F24F67206802F085FE667701F09AFBEC
:104880000546637F012B0CD001F094FB401BB8421E
:1048900004D800212046FFF705FFF2E7637F012BD4
:1048A000E8D10CB0BDE8F08130B5184C89B00021DA
:1048B0000F2003F06FF8204600F056FE204601F06E
:1048C00071F80121204600F000FE00254FF0011391
:1048D0002046C4E9045302F014F9204601F0CEFA50
:1048E000A2230093AC22EA23A72102A802F0D4FA63
:1048F00042F2823302AA06480649FFF78BFF294697
:104900000348FFF7CFFE09B030BD00BFC0E503206C
:1049100064E50320908B0D002DE9F04F83B000AFCC
:10492000044600683D6B884616469946EB4602F001
:1049300048FC00287FD0B8F11D0F04D84C4B23FA57
:1049400008F3DB0702D4637F012B74D146B9668B71
:1049500036B9238B01339BB2002B71D02383268B76
:10496000A8F10C03082B16D8D4E90323934238BFCF
:10497000134603F1420A01F01DFBAAEB00000028D8
:1049800060DB00212046FFF78DFE01F013FBAAEB50
:1049900000000028F5DAB9F1000F5AD06B1D7A6BD0
:1049A000002ABA6B08BF002203EB020A0AF10703D0
:1049B00023F00703ADEB030DBB6BC7F804D0EA1877
:1049C000C2F3072376BA43EA02238DF80080ADF8DC
:1049D0000160ADF80330B9F1000F3CD0002D3AD0A2
:1049E0002A4649460DF1050003F0D0FF681D7B6B98
:1049F0003BB1BB6B2BB11A467B68796B184403F053
:104A0000C5FF002555452AD2AAEB05027B68206820
:104A1000B2F5806F28BF4FF48062591902F0BBFBDA
:104A20000646002001F0C4FABEB9206802F0AAFDD3
:104A3000667701F0C3FA0C37DD46BD46BDE8F08F5E
:104A400001238BE7217F0029A5D12046FFF72AFE0D
:104A5000A1E70523A3E70520C9E73544D2E703D042
:104A60002046FFF7ADFBE6E701F0A4FA2061E2E79C
:104A70004500002000B595B004AB00220193492306
:104A800000930292034B1121FFF746FF15B05DF82A
:104A900004FB00BFD28B0D0010B5ADF5846D08ABE3
:104AA000096805934FF480620023CDE9063204467D
:104AB00089B9012206928DF82010069B0022013B45
:104AC0000093CDE90122059B0E212046FFF724FF2C
:104AD0000DF5846D10BD05A8FFF7F6FAEDE70000AF
:104AE000F0B5434C434D89B0204600F066FD0F20E1
:104AF00002F08DFF404B188080B203F073FA38A3A8
:104B0000D3E9002303F0D8FA37A3D3E9002303F055
:104B1000FDFB3A4B06460F46C3E900670022384BBF
:104B200003F012F9374B002203F0C6FAC5E9000181
:104B30003549684601F02BFF204600F033FF012184
:104B4000204600F0C2FC00224FF001132F496846B6
:104B5000C4E9042301F070FF95ED000B062104A8C1
:104B600001F03BFF04A9684601F062FF04A801F0D0
:104B7000C3FE2749684601F05FFF2649684601F0F9
:104B80005BFFD5E90001244B002203F095FA234B8B
:104B9000002203F0BBFB224B002203F0D7F841ECCC
:104BA000100B062104A801F018FF04A9684601F0C3
:104BB0003FFF04A801F0A0FE0099204601F0ADFFE0
:104BC000204601F05BF9204600F010FD18B11548B1
:104BD0006946FFF761FF684601F08EFE09B0F0BD3F
:104BE0006666666666660A400000000000FEAF402A
:104BF000C0E5032038E6032030E6032040E603202A
:104C00000000E03F00005940BC8B0D00B18B0D004F
:104C1000BB8B0D00BD8B0D00000022400000144036
:104C20000000404064E5032038B5144D0021012008
:104C300001F0DAFB284602F0EFFC05F11C0002F05F
:104C4000E7F800240E4A0F496C6328462C8702F0CF
:104C50005BFF0D4BC3E90054C3E90244C3E90444BC
:104C60009C619C83094C0721204600F04FFC2046A4
:104C7000034A0749BDE8384002F046BF84E50320F7
:104C800060E50320F9400D0064E50320C0E5032042
:104C9000D9540D00704710B51021044602F039FFB9
:104CA000204610BD0EB403B503AB002153F8042B0E
:104CB000019301F05AFF02B05DF804EB03B07047B6
:104CC00073B5044608462279A36832B1A3B90B49EB
:104CD00002B0BDE8704001F00DBF094A267B094DC6
:104CE0000949647B012E18BF2946CDE90014074904
:104CF000FFF7D8FF02B070BD054AEFE72E8C0D001C
:104D0000BC8B0D002A8C0D00268C0D00448C0D00F0
:104D10001D8C0D002DE9F04F85B01F46BDF9388080
:104D2000BDF83C30A8EB0209A7EB010AB9F1000F6E
:104D3000B8BFC9F10009BAF1000FB8BFCAF1000A43
:104D4000D14583460C46154604DD3A462C46474677
:104D50000D469046BC4205DD2A4645469046224611
:104D60003C4617463E1BB2B20092A8EB0502002A51
:104D7000B8BF52420192C6F3C03202FA86F64545E8
:104D8000B4BF01224FF0FF3276100292BC421CDC0D
:104D9000DBF800200393D145D2F81880C7BF29461D
:104DA00022462A4621465846C047019A039BB61A16
:104DB000B1B236B2002E05DA029A1544009A56189E
:104DC0002DB236B2013424B2E0E705B0BDE8F08F71
:104DD000704710B404682469A4465DF8044B60472A
:104DE00030B40468BDF808500295A46BA44630BCEA
:104DF000604730B40468BDF808500295E46BA446DF
:104E000030BC604770B4BDF90C50BDF81060046848
:104E1000CDE90356246CA44670BC60472DE9F341EC
:104E20001C460368BDF820805B6905461646013CB8
:104E300034440F4624B298472B68CDF80480009480
:104E40009C6A28463B4632463946A0472B68DB6AB7
:104E5000284602B0BDE8F04118472DE9F3411D4650
:104E60000368BDF820805B69044617460E469847E4
:104E7000CDE9007822686B1E3344956A20461BB248
:104E80003A463146A8472368DB6A204602B0BDE8AF
:104E9000F04118472DE9F3471E460368BDF92890F5
:104EA0005B69BDF82C800C4605461746984726449A
:104EB000B4422B680BDACDF80080D3F820A021464D
:104EC0004B463A4628460134D04724B2F0E7DB6A25
:104ED000284602B0BDE8F047184713B502680191B3
:104EE000B0F90E100091146CB0F90C30002211468C
:104EF000A04702B010BD2DE9F3471D460368BDF879
:104F00002C805B69BDF9289004460F4616469847E9
:104F10002368CDF80080D3F824A032462B463946CA
:104F20002046D0472368CDF8008009F1FF32324493
:104F3000D3F824A039462B46204612B2D047236826
:104F4000CDF80080D3F820A032464B4639462046A3
:104F5000D0476B1ED9192368CDF800801D6A204602
:104F60004B46324609B2A8472368DB6A204602B0A6
:104F7000BDE8F047184770472DE9F74399421646B8
:104F8000BDF92870BDF82C90026880460D461C467D
:104F900013D1BE42C8BF3346CDF82890C4BF3E46A9
:104FA0001F467B1C946B9B1B1BB232462946404616
:104FB000A44603B0BDE8F0436047BE420AD199421F
:104FC000C2BF0B4625461C46631CCDF82890D46B07
:104FD0005B1BE9E753699847CDE90079D8F80030C1
:104FE00040469F6A324623462946B847D8F80030E3
:104FF000DB6A404603B0BDE8F043184701F0030305
:10500000B0F90A208376C907B0F9083059BF838107
:10501000C2818281C381704730B54281C281074A13
:10502000074D0181002481814FF0FF31C0E9051255
:105030004460056004610477046230BD0101000131
:105040006C910D002DE9F04F89B0CDE90212026894
:10505000BDF948800493BDF94C3052690593BDF801
:1050600050A00446904718F107024FF0000648BFD1
:1050700008F10E024FEAE20B01963546039B019AB6
:10508000BDF904109A18059B8B4212B227DD049BD0
:1050900033444FF0000906930FFA89F080451FFA58
:1050A00089F117DD4F0705BF069BC0106D001D5C21
:1050B00018BFEDB22B060AD5029B2068079219444F
:1050C000836909B21F4620465346B847079A09F13B
:1050D0000109E1E7019B013301935E44CEE72368B8
:1050E000DB6A204609B0BDE8F04F18472DE9F04FC4
:1050F0002DED028B91B01646026ABDF874809DF8C2
:1051000078509DF87C4003911F46BDF870300493A1
:105110008346002A40F0C580B0F90C308B4240F342
:105120004C81B0F90E30B34240F34781062313FBA4
:105130000513002B40F3418106EBC403002B40F321
:105140003C81037F1BB9AF2F84BF0137FFB2DBF86F
:10515000003058465B699847052209920022059263
:10516000984A07EB8703D3180C93B3B20693059ABA
:105170000C9B9B5C0793ABB20B93BDF80C30089370
:10518000039B02FB05F919FA83F90FFA89F308EE7C
:10519000103A08230A93039B02EB030A4FF000091D
:1051A0000FFA8AFA079ADBF80030D20752D5012DA0
:1051B0001FFA89F23ED1012C3CD19B6906991F460A
:1051C000049B0A4412B251465846B84709F10103FC
:1051D0004FFA83F9079B5B0807930A9B013B13F087
:1051E000FF030A93DED1059F01377BB20593099B2C
:1051F000013B13F0FF030993B9D1049B43450FD042
:10520000012DDBF800303BD1012C39D10899CDF8C4
:10521000008005311C6A3246082309B25846A0476F
:10522000DBF80030DB6A584611B0BDEC028BBDE8FC
:10523000F04F1847069914FB02F20A4404990191B1
:105240000094DB6918EE101A1F4612B22B4658461E
:10525000B847BBE7049A4245B8D0012D1FFA89F23E
:1052600007D1012C05D19B6906991F460A44434684
:10527000A8E70699CDF8048014FB02F20A44DFE7A0
:105280000B9ACDF8048002EB8201089AE4000A44EC
:1052900011460094DC6932462B4609B25846A047B5
:1052A000BEE7137A516812680D92FF1AFFB201EB44
:1052B000C70331F8372006929A780992DA780B9270
:1052C000012D93F9052093F906A00A9201D8012C2B
:1052D00057D9BDF9283008930FFA8AF30793DBF802
:1052E000003058465B699847B3B24FF000080E9300
:1052F0001AFA86F3C14647460F930B9B9F428FD203
:10530000079B0E9A3B4403FB0423002205920F9A4D
:105310001BB202EB070A08EE103A0FFA8AFA43466C
:10532000099A0599914241D25A1CD2B25B070C925C
:1053300007D1069B06990D9A01339BB212F8019092
:10534000069319F0800F12D0012DDBF80030BDF864
:105350000C101AD1012C18D10A9A9B691144059A94
:1053600011441E465246049B09B25846B047059E5A
:105370000136F3B24FEA490905935FFA89F90C9BAC
:10538000CEE70023CDE90733A9E70598089A024440
:1053900002FB0511049ACDE90042DB6918EE102AE0
:1053A0001E4609B22B465846B047E0E7099B013735
:1053B00098445FFA88F8FFB29FE711B0BDEC028B0A
:1053C000BDE8F08F618C0D00F0B5026A85B004462F
:1053D0000B46002A34D10A2908D1438A0282427E30
:1053E00003EBC2036382012005B0F0BD0D29FAD0A2
:1053F000E17E007E657E71B1B4F91060062111FB7B
:105400000061B4F90C60B142C1BFB4F9121022823C
:1054100001EBC5026282E28A0192A28A0092CDE982
:105420000205B4F91220B4F910102046FFF75EFE11
:10543000237E228A03EB430302EB43032382D2E75A
:105440000A2907D100230382937A417E428A01FB15
:105450000323C7E70D29C6D0157AA942C3D3517AD1
:105460009942C0D351685D1BEDB201EBC505AF7821
:105470002FB3E97819B3E17E007E667E91B195F98C
:1054800005103944B4F9107000FB0171B4F90C70C7
:10549000B94207DD00272782B4F91210927A02FB85
:1054A00006126282E28A0192A28A0092CDE9020685
:1054B000B4F91220B4F910102046FFF717FE29792D
:1054C000237E228A01FB0323B8E7012938BF01218B
:1054D000017641767047000010B5064B0360044624
:1054E000006D08B100F0F8FD204600F0E3F820461A
:1054F00010BD00BFC4910D0010B50446FFF7ECFFCE
:105500002046702102F005FB204610BD30B585B065
:1055100004460D4602F0D0FA104A1149CDE90121A6
:105520004FF0FF328021034600922046202200F0F7
:1055300047F90C4B23600023C4E9143504F15800EB
:1055400000F05EF804F1600000F05AF804F1680021
:1055500000F056F8204605B030BD00BF801A0600A6
:10556000A0860100C4910D0013B50446503000F030
:10557000ABFD636DD90705D50222042104F1580063
:1055800000F052F8636D9A0705D50022032104F15B
:10559000600000F049F8636D5B0705D502221146F3
:1055A00004F1680000F040F8012300933C2202213E
:1055B000204600F005FA02B010BD10B5436DD907C2
:1055C000044602D5583000F03CF8636D9A0703D5C5
:1055D00004F1600000F035F8636D5B0705D504F158
:1055E0006800BDE8104000F02CB810BD436D0246C5
:1055F00013F0010003D002F1580000F052B87047D8
:1056000000210A22C0E900127047002310B50446A9
:10561000C171837188B202F0E7F908B10323A37165
:1056200000F04AFD206010BD38B50C460546114615
:10563000A0B202F0AFF921462846BDE83840FFF796
:10564000E4BF38B50446C07902F0CEF9A579003838
:1056500025F0080318BF0120C5F340058542A3715A
:105660000AD000F029FDA379206083F00203A37122
:10567000A079C0F3C00038BD00F01EFD2368C01A39
:10568000A3889842F4D3A37903F00103AB42EFD08F
:1056900000F012FDA379206083F0010343F00803BA
:1056A000E5E7807900F00900A0F10803584258416D
:1056B0007047000010B5044B03600446C06A08B18F
:1056C00000F026FF204610BDD0960D0010B5044610
:1056D000FFF7F0FF2046502102F01BFA204610BDD4
:1056E000002910B54BDBB0F90C408C4247DD002A95
:1056F00045DBB0F90E40944241DD847E022C1FD080
:10570000032C26D0012C04D10489D24314440A4628
:1057100021B2012B23D0022B32D083BB002A1346A7
:105720000489C06AB8BFD31DDB1013FB041102F05B
:10573000070201239340425C22EA030242541EE026
:105740000489C94321444489D243224409B212B294
:10575000DFE74489C9430C44114622B2D9E7002A45
:1057600004891346B8BFD31DDB1013FB0411C36AB1
:1057700002F0070001228240585C02435A5410BDD7
:10578000002A13460489C06AB8BFD31DDB1013FB7F
:10579000041102F00702012303FA02F2435C5A40AB
:1057A000CCE710B5044690F93600012180B202F032
:1057B00002F9606A18B1BDE8104000F038BF10BDB2
:1057C00070B504461D460026FFF726FC114B2360EA
:1057D000666215B902F070F90546FF2384F833308C
:1057E00084F836309DF9103084F837300A4BA363C3
:1057F000012384F83C30059BA3644FF6FF72069B9F
:10580000A286C4E90A562664A4F84460E3642046EC
:1058100070BD00BFD0960D001C920D00F8B5044677
:10582000806A0D4690B194F9301001F09DFCA06A99
:10583000036800219B689847A06A036829469B6813
:105840009847A06ABDE8F84001F095BC94F935305E
:10585000014698B202F0AFF8606A20B12946BDE86F
:10586000F84000F06BBF0826802794F9330005EA62
:10587000070180B202F09FF894F93400012180B250
:1058800002F099F894F93400002180B202F093F804
:10589000013E4FEA5707E8D1F8BD38B50446806AA3
:1058A0000D4680B1A16C01F051FC002D204614BFC3
:1058B000A721A621FFF7B2FFA06A88B1E16CBDE87D
:1058C000384001F043BC606A18B104F1380100F0BF
:1058D000C7FE94F93600002180B202F06CF8E4E7CC
:1058E0002046BDE83840FFF75CBF2DE9F843044689
:1058F000806A0D468F1840B394F9301001F034FCE3
:10590000A06A036800219B6898470126BD42A06AEF
:1059100017D01F2E0CD901F02EFC94F93010A06A7C
:1059200001F022FCA06A036800219B6898470126C9
:10593000A06A15F8011B036801369B689847F6B208
:10594000E4E7BDE8F84301F016BC94F935300146B0
:1059500098B202F030F8AF4222D0606A15F8019B8D
:1059600018B1494600F0EAFEF5E708264FF0800836
:1059700094F9330009EA080180B202F01CF894F9A6
:105980003400012180B202F016F894F934000021AD
:1059900080B202F010F8013E4FEA5808E8D1DAE789
:1059A000BDE8F883B0F90A30DA1D48BF03F10E02F2
:1059B000B0F90830C06AD2105A43002102F0F4BF97
:1059C0002DE9FF411E46C36A9DF8288004460F4614
:1059D0001546B3B12046FFF7E5FFB4F90A00B4F964
:1059E000081020281FDC20230122CDE901322038B5
:1059F00073237339009300EBD070894B01EBD171A5
:105A00001FE0B0F90A30D81D48BF03F10E00B4F909
:105A10000830C010584300F073FDE0620028D9D16F
:105A200004B0BDE8F08140234FF0010CCDE9013C0A
:105A300052234038523900937A4B00EBD07001EB7F
:105A4000D17140F34F0241F34F012046FFF7FAFABC
:105A5000A06A84F83170002878D0002D74D1B4F990
:105A60000A30202B0CBF3C253D2584F83050B8F17E
:105A7000000F01D001F06EFBFEB194F93700002851
:105A80001BDB012180B201F085FF94F93700012171
:105A900080B201F090FF012001F0D6F894F93700B0
:105AA000002180B201F087FF0A2001F0CDF894F9BF
:105AB0003700012180B201F07EFFA06A002874D077
:105AC000A16C01F043FB042257492046FFF70DFF6C
:105AD000A17A0139C9B22046FFF7A0FE534904223A
:105AE0002046FFF702FF94F93130012B0CBF102143
:105AF00014212046FFF792FE04224D492046FFF76D
:105B0000F4FEA3684B4A93425CD14B4904222046E1
:105B1000FFF7EBFED9212046FFF780FE94F93130E4
:105B2000012B0CBF2221F1212046FFF777FE2046F2
:105B300042490622FFF7D9FEA06A002863D0E16C33
:105B400001F004FB01206BE76DB28EE794F935009C
:105B5000012180B201F01EFF94F93600012180B2CC
:105B600001F018FF94F93600012180B201F023FF03
:105B7000656A3DB1B8F1000F3FF47EAF284600F0F2
:105B800045FD79E794F93300012180B201F002FF6D
:105B900094F93400012180B201F0FCFE94F9340044
:105BA000294680B201F007FF66E7606A18B104F188
:105BB000380100F055FD94F93600002180B201F063
:105BC000FAFE80E71E4A93420ED11E490322204668
:105BD000FFF78BFE94F93130012B0CBF9F21CF21B1
:105BE0002046FFF71BFE95E7174A934292D11749CB
:105BF00003222046FFF779FE94F93130012B0CBFC8
:105C00001021AF21ECE794F93600012180B201F0B8
:105C1000D2FE606A002895D000F009FD92E700BF2F
:105C2000E8940D0028920D0030970D0034970D0078
:105C300038970D008000200042970D003C970D0022
:105C40008000400046970D006000100049970D004D
:105C500070B5002ABDF810503DDBB0F90A409442FF
:105C600039DD0029BEBF5B181BB20021B0F9084026
:105C7000CE18A642C4BF631A1BB2002B2BDDC06A2C
:105C8000D61014FB0611014402F0070001228240E5
:105C9000012DD2B216D0022D0BD0E5B9D243D2B22B
:105CA0000B44994217D011F8010B104001F8010C78
:105CB000F7E70B4499420ED011F8010B504001F860
:105CC000010CF7E70B44994205D011F8010B104382
:105CD00001F8010CF7E770BDF0B50029BDF81460BC
:105CE00076DBB0F90850A94272DA002ABCBFD2189C
:105CF00013B2B0F90A40B8BF0022D718A742C4BFF8
:105D0000A31A1BB2002B63DDC2F3C404C76A15FBE0
:105D1000041112F00702DBB207EB010423D0C2F139
:105D20000802D2B22C4D93423CBF4FF0FF0CA2EBC5
:105D3000030EAD5C3CBF4CFA0EFC0CEA0505012ECF
:105D400007D0022E2ED04EB917F801C02CEA050557
:105D500003E017F801C045EA0C057D54934237D3A0
:105D6000B0F908100C449A1AD2B2072A0ED9022EA2
:105D70001DD113462178C9432170083BB0F90810A2
:105D8000DBB2072B0C44F5D802F0070202B3134B29
:105D9000012E9B5C19D0022E1BD0CEB9227822EAAC
:105DA000030314E017F801C085EA0C05D5E7002EBF
:105DB00014BFFF25002513462570083BB0F90810D5
:105DC000DBB2072B0C44F7D8DEE7227813432370AD
:105DD000F0BD22785340FAE720970D0028970D0078
:105DE00070B41446827EBDF80C60022A0DD0032ADE
:105DF00018D0012A11D10289E443144424B2039635
:105E00000A46214670BCFFF767BF42890589E44313
:105E100019441444691A24B209B20396224670BC8C
:105E2000FFF716BF45891944691A09B2E7E730B48C
:105E30001446827EBDF80850022A0DD0032A18D0DD
:105E4000012A11D1E2180489A41A24B202950A4643
:105E5000214630BCFFF7FCBE0289C9431144E21859
:105E60004489A41A09B224B20295224630BCFFF735
:105E700033BF4289C943114409B2E7E72DE9F8432A
:105E80000446806A002842D0A16C01F05FF94749BE
:105E900005222046FFF729FD217A01392046C9B2A3
:105EA000FFF7BCFCB4F90A30DE1D48BF03F10E0653
:105EB000D4E90A052389F61013FB06F615FA86F6CF
:105EC00000283AD094F9301001F04EF9A06A036826
:105ED00040219B6898470127B542A06A24D01F2F14
:105EE0000CD901F048F994F93010A06A01F03CF99E
:105EF000A06A036840219B6898470127A06A15F8AB
:105F0000011B036801379B689847FFB2E4E7606AAA
:105F100018B104F1380100F0A3FB94F93600002118
:105F200080B201F048FDB2E701F025F9A06A78B32C
:105F3000E16CBDE8F84301F009B994F9350001219D
:105F400080B201F038FDB542F0D0606A15F8019BCF
:105F500018B1494600F0F2FBF5E708274FF080083A
:105F600094F9330009EA080180B201F024FD94F9A4
:105F70003400012180B201F01EFD94F934000021AB
:105F800080B201F018FD013F4FEA5808E8D1DAE786
:105F900094F93600012180B201F00DFD606A18B15C
:105FA000BDE8F84300F043BBBDE8F8834C970D0013
:105FB00000F04ABE00F080B870477047704700009C
:105FC00003065ABF024B53F820000020704700BF61
:105FD00054970D0003065ABF024B53F820000020CF
:105FE000704700BF54990D0008B5024B1B689B68B1
:105FF000019308BD6802030008B5024B1B68DB680B
:10600000019308BD6802030008B5024B1B685B687A
:10601000019308BD2C02030008B5024B1B689B6866
:10602000019308BD2C02030008B5024B1B68DB6816
:10603000019308BD2C02030008B5024B1B681B69C5
:10604000019308BD2C02030008B5024B1B685B6975
:10605000019308BD2C02030008B5024B1B689B6A24
:10606000019308BD2C02030008B5024B1B681B6B93
:10607000019308BD2C02030008B5024B1B689B6FFF
:10608000019308BD2C02030008B5024B1B685B6935
:10609000019308BD6C02030008B5024B1B685B68E6
:1060A000019308BD1802030008B5024B1B68DB68AA
:1060B000019308BD1802030008B5024B1B685B6919
:1060C000019308BD1802030008B5024B1B681B6B47
:1060D000019308BD4802030008B5024B1B685B6BC7
:1060E000019308BD4802030008B5024B1B685B6CB6
:1060F000019308BD4802030008B5024B1B689B6C66
:10610000019308BD4802030008B5024B1B685B6998
:10611000019308BD6402030008B5024B1B681B6AAB
:10612000019308BD6402030008B5024B1B689B6A1B
:10613000019308BD6402030008B5024B1B681B688D
:10614000019308BD3C02030008B5024B1B68DB68E5
:10615000019308BD3C02030008B5024B1B681B6994
:10616000019308BD3C02030008B5024B1B685B6944
:10617000019308BD3C02030008B5024B1B689B69F4
:10618000019308BD3C02030008B5024B1B68DB69A4
:10619000019308BD3C02030008B5024B1B681B6A53
:1061A000019308BD3C02030008B5024B1B689B6AC3
:1061B000019308BD3C02030008B5024B1B681B6835
:1061C000019308BD2802030008B5024B1B68DB6879
:1061D000019308BD2802030008B5024B1B689B69A8
:1061E000019308BD2802030008B5024B1B68DB6958
:1061F000019308BD2802030008B5024B1B681B6A07
:10620000019308BD2802030008B5024B1B685B6AB6
:10621000019308BD2802030008B5024B1B689B6A66
:10622000019308BD2802030008B5024B1B68DB6A16
:10623000019308BD2802030008B5024B1B681B6BC5
:10624000019308BD2802030008B5024B1B685B6B75
:10625000019308BD2802030008B5024B1B681B6CA4
:10626000019308BD2802030008B5024B1B689B6917
:10627000019308BD3802030008B5024B1B68DB69B7
:10628000019308BD3802030008B5024B1B681B6A66
:10629000019308BD3802030008B5024B1B689B6AD6
:1062A000019308BD3802030008B5024B1B681B6B45
:1062B000019308BD3802030008B5024B1B689B6BB5
:1062C000019308BD3802030008B5024B1B681B6828
:1062D000019308BD3002030008B5024B1B685B69DF
:1062E000019308BD3002030008B5024B1B68DB694F
:1062F000019308BD3002030008B5024B1B681B6AFE
:10630000019308BD3002030008B5024B1B685B6AAD
:10631000019308BD3002030008B5024B1B68DB6B1C
:10632000019308BD3002030008B5024B1B681B6CCB
:10633000019308BD3002030008B5024B1B685B6C7B
:10634000019308BD3002030008B5024B1B681B68AF
:10635000019308BD4C02030008B5024B1B681B6982
:10636000019308BD4C02030008B5024B1B685B6932
:10637000019308BD4C02030008B5024B1B689B69E2
:10638000019308BD4C02030008B5024B1B68DB6992
:10639000019308BD4C02030008B5024B1B681B6A41
:1063A000019308BD4C02030008B5024B1B685B6BF0
:1063B000019308BD6002030008B5024B1B681B6D0A
:1063C000019308BD6002030008B5024B1B685B68BF
:1063D000019308BD2002030008B5024B1B685B69EE
:1063E000019308BD2002030008B5024B1B68DB6A5D
:1063F000019308BD2002030008B5034B1B68D3F8C6
:106400008830019308BD00002002030008B5034B4B
:106410001B68D3F89430019308BD000020020300EC
:1064200008B5024B1B685B68019308BD400203007E
:1064300008B5024B1B689B68019308BD400203002E
:1064400008B5024B1B68DB68019308BD40020300DE
:1064500008B5024B1B681B69019308BD400203008D
:1064600008B5024B1B685B69019308BD400203003D
:1064700008B5024B1B689B69019308BD40020300ED
:1064800008B5024B1B68DB69019308BD400203009D
:1064900008B5024B1B681B6A019308BD400203004C
:1064A00008B5024B1B681B6B019308BD400203003B
:1064B00008B5024B1B685B6B019308BD40020300EB
:1064C00008B5024B1B681B6C019308BD400203001A
:1064D00008B5024B1B685B6C019308BD40020300CA
:1064E00008B5024B1B689B68019308BD440203007A
:1064F00008B5024B1B68DB6B019308BD4402030027
:1065000008B5024B1B681B68019308BD1C02030001
:1065100008B5024B1B685B68019308BD1C020300B1
:1065200008B5024B1B689B68019308BD1C02030061
:1065300008B5024B1B68DB69019308BD1C02030010
:1065400008B5024B1B685B6A019308BD1C0203007F
:1065500008B5024B1B68DB6B019308BD1C020300EE
:1065600008B5024B1B685B6C019308BD1C0203005D
:10657000002240681146FFF78BBF00224068114699
:10658000FFF796BF40680022FFF78ABF40680022ED
:1065900081F00101FFF774BF002340681A461946D5
:1065A000FFF766BF002340681A461946FFF758BF39
:1065B000002240681146FFF74BBF00224068114699
:1065C000FFF736BF406800220221FFF739BF0023E2
:1065D00040681A46FFF724BF024B03225A60024A62
:1065E0001A60704754E603205C9B0D000021FFF702
:1065F0009BBE0021FFF7A0BE10B5044608462170DF
:10660000FFF772FE00236360204610BD10B50446FC
:106610000078FFF7EBFF48B920784FF6FF71FFF7DE
:1066200053FE2078BDE81040FFF7E3BF10BD0078AF
:10663000FFF7DFBF400830B51860002418688842B3
:10664000E5B206D90134082C02D040081860F5E7FD
:106650000725024B5B5D137030BD00BF909B0D00A2
:106660002DE9F04306468FB000780C46FFF7BEFFD9
:1066700000281BDB35781422002109A802F094F9C8
:106680000B23002209A92846ADF82430FFF73CFE71
:106690009DF82D3013B19DF82C5055B10027B94607
:1066A000B846012523795DB1C3B100200FB0BDE824
:1066B000F083DDF830809DF834909DF83570F1E777
:1066C000002B35D1A368434508D18DF820908DF873
:1066D0002170BDF82020A3899A42E6D00023A1684A
:1066E0008DF80F300A9804AB0DF10F02FFF7A2FFEF
:1066F000217985B989B9A36843450ED38DF82090D7
:106700008DF82170BDF82020A3899A4205D1049B01
:10671000434502D1C9E70029F9D100230193637BE6
:1067200000939DF80F20237B3078FFF7F5FDBCE741
:10673000CDE900552B462A460121F5E708B500783A
:10674000FFF7CAFDC0B208BD10B50446006818B115
:10675000FFF7DEFE0023236010BD10B50446FFF7EF
:10676000F3FF204610BD000010B5094B094C022272
:1067700000201A60084B2060A080A071A360FFF782
:1067800023FE2046054A0649BDE8104001F0BCB989
:1067900068E603205CE603200000FFFF60E50320BD
:1067A0005B670D0010B5044602F03CF90138231870
:1067B0002046834206D90278197800F8011B03F8B5
:1067C0000129F6E710BD70B50C46911E2229054639
:1067D00022D820466DB1B5FBF2F602FB1655E9B2A0
:1067E000092D94BF30315731C9B200F8011B35462D
:1067F000F0E7024623443021934202D902F8011BFC
:10680000FAE71A1A834238BF002200238354204635
:10681000FFF7C8FF204670BD0020FCE770B586B0CA
:10682000064601AD684600F043FB0FCD341D0FC492
:106830002B682370304606B070BD00002DE9F0478C
:1068400057EC106B80460C4610EE100A0022002315
:10685000394601F0A3FE28B107F100431F462D235E
:1068600004F8013B00234FF001090A22D9B2884500
:1068700003D902FB09F90133F8E7484601F0B2FBFE
:1068800032463B4601F018FC06460F4601F0E6FE94
:1068900005468A4601F0DAFB02460B463046394689
:1068A00001F052FA134B002201F08CFE10B10135B9
:1068B0004AF1000A4A462846D317514601F0B6FE6F
:1068C0000123154621460A22FFF77DFFB8F1000F8C
:1068D0000DD0204602F0A6F82E23211823540A22B8
:1068E000434628460131BDE8F047FFF76CBFBDE8DD
:1068F000F08700BF0000E03F10B504460068FFF7D6
:1069000007FE204610BD10B50446006808B1FFF729
:10691000FFFD0023C4E90133236010BD38B50446F0
:106920000D4600680131FFF7FBFD10B1C4E9000519
:10693000012038BD10B50368044623B143688B427B
:1069400001D3012010BD2046FFF7E8FF0028F9D051
:10695000A368002BF5D122681370F2E737B50D4616
:10696000114601920446FFF7E5FF019A28B9204637
:10697000FFF7C9FF204603B030BDA260294620685A
:1069800002F004F82268A3680021D154F2E7002342
:1069900013B5C0E9003304468360037341B1084670
:1069A000019102F03FF8019902462046FFF7D6FF19
:1069B000204602B010BD13B5044659B108460191F6
:1069C00002F030F8019902462046FFF7C7FF204643
:1069D00002B010BDFFF797FFF9E710B504468AB083
:1069E00000230846C4E90033A360237301A9C0B2A1
:1069F000FFF724FF01A92046FFF7DDFF20460AB07C
:106A000010BD70B505460E4609B9002070BD6AB1CB
:106A1000846814442146FFF78DFF0028F5D02868CC
:106A2000AB683146184401F0F5FFAC600120EDE79A
:106A30008A680968FFF7E5BF13B50446084651B1F7
:106A4000019101F0EFFF01990246204602B0BDE836
:106A50001040FFF7D6BF02B010BD10B50446006865
:106A600008B1FFF749FB204610BD10B58368044606
:106A700013B1032201469847204610BD10B5064CBD
:106A8000002320462360FFF72FFB2046034A0449DA
:106A9000BDE8104001F038B86CE6032060E5032043
:106AA0005B6A0D00F8B506460D468F180024BD42FE
:106AB0000CD0336815F8011B9B6830469847031EBD
:106AC00001DB1C44F3E7002C08BF1C462046F8BD40
:106AD00013B50446084659B1019101F0A3FF23689C
:106AE0000199DB680246204602B0BDE81040184715
:106AF00002B010BD08B5FFF7EBFF08BD03689B6847
:106B0000184738B50D210546FFF7F8FF0A2104465E
:106B10002846FFF7F3FF204438BD38B50546FFF798
:106B2000D7FF04462846FFF7ECFF204438BD30B5B8
:106B30008BB000238DF82430012A98BF0A2209ACBB
:106B40000D46B1FBF2F101FB125303F0FF03092BD9
:106B500094BF30333733DBB2AA4204F8013DEFD99A
:106B60002146FFF7B5FF0BB030BD2DE9F04186B0EF
:106B700000AF05460E46381D142114463B60FFF752
:106B8000DFFC13280ED8391D2846FFF7A1FF044665
:106B90001EB12846FFF7B5FF044420461837BD460E
:106BA000BDE8F08100F1080323F00703E846ADEBF0
:106BB000030D2246411C3B686846FFF7C1FC69464D
:106BC0002846FFF785FF0446C546E1E710B50446B1
:106BD000FFF772FAE060236820465B699847002857
:106BE00008DAFFF769FAE368C01AA3689842F2D39B
:106BF0004FF0FF3010BDF8B506460D46174600248D
:106C0000BC4207D03046FFF7E1FF031E02DB2B55E5
:106C10000134F5E72046F8BD002340681A461946BE
:106C2000FFF71EBC014B024A1A60704770E6032052
:106C3000A09B0D00024B1A68024B1A60704700BF00
:106C4000F4E4032074E603200021FFF7C5BB10B570
:106C50000446FFF70AFF204610BD00000348044A1F
:106C600004490023836000F04FBF00BF78E6032093
:106C700060E503204F6C0D00014B1860704700BFAA
:106C8000F8E4032008B50B4B43B100F079F9036831
:106C90001B699847002801DDAFF30080064B43B124
:106CA00000F0ECF903681B699847002801DDAFF399
:106CB000008008BD000000000000000008B5FFF7DC
:106CC000E1FFFFF7F9F9014B186008BDD8E7032091
:106CD0000248034A0349121A01F058BE00F4032087
:106CE00004F40320789F0D0007B5002300931A4693
:106CF0006FF07701FFF78AFB03B05DF804FB00003B
:106D000007B543880A2B08D0502B0BD1094B1B68C1
:106D10004BB103B05DF804EB1847FFF7E5FF03B094
:106D20005DF804FB002300931A466FF07701FFF72C
:106D30006DFBF4E78CE6032038B5124C1248134D76
:106D40000021FFF70DFC2368AB42114B0CBF012261
:106D500000221A7002D0FFF7BBFF2560FFF79CF9F5
:106D6000044601F029FE0B4B13B12046AFF300801F
:106D700000210848FFF7BCFBBDE838400648002169
:106D8000FFF73ABB00F40320796C0D001E1C279A14
:106D900088E6032000000000016D0D00704710B56B
:106DA0001821044600F0B5FE204610BDF0B5037D65
:106DB000062B8DB00E4600F104074FF0000412D0F0
:106DC00000F1080515F8011D0A223046FFF7AFFE55
:106DD000AF42044419D0002CF4D02E213046FFF7E6
:106DE0008DFE0444EEE72F236A4639460A208DF8CB
:106DF0000040FFF789F9684601F014FE3368024647
:106E0000DB68694630469847044620460DB0F0BD21
:106E100010B5054B0446112240F8043B002101F057
:106E2000C3FD204610BD00BFC89B0D000346074AA6
:106E300010B543F8042B01F1100251F8044B43F84C
:106E4000044B9142F9D10A781A7010BDC89B0D000D
:106E5000037D042B04D14068003818BF012070471F
:106E6000062B07D143683BB983682BB9C3681BB9AC
:106E70000069F1E7002070470120704710B59DF8C8
:106E8000084044EA032343EA024242EA0161042340
:106E90004160037510BD000037B5044D05609DF8D5
:106EA00018500095FFF7EAFF03B030BDC89B0D00F6
:106EB00013B5054B0360CB7800938B784A7809783B
:106EC000FFF7DCFF02B010BDC89B0D004174704796
:106ED000704708B50021007CFFF74EFA40EAE070E9
:106EE00008BD08B50121007CFFF746FA40EAE070D2
:106EF00008BD08B5007CFFF737FA20EAE07008BD4E
:106F000008B5007CFFF728FA20EAE07008BD13B549
:106F10000446007C0191FFF727FA0028019901DC63
:106F2000607C20B1207CFFF72FFA20EAE07002B0ED
:106F300010BD007CFFF730BA10B51421044600F0F4
:106F4000E8FD204610BD000010B54FF47A730446EA
:106F500008460021C4E90113044B23600123207477
:106F600063741146FFF7F0F9204610BDDC9B0D005D
:106F700010B514220446002101F016FD204610BD74
:106F800010B5104C88B003A8FFF7F2FF2178BFF3CB
:106F90005B8F11F0010111D120460191FDF78CF8B2
:106FA000019958B103AA0848FFF7CEFF2046FDF724
:106FB00088F8064A0649044800F0A6FD024808B0D1
:106FC00010BD00BF90E6032094E6032060E5032097
:106FD000D16E0D0070474174704708B5007CFFF713
:106FE000E3F820EAE07008BD08B5007CFFF7B4F8CC
:106FF00020EAE07008BD08B5007CFFF7BDF840EA64
:10700000E07008BD08B5007CFFF7AEF840EAE0701C
:1070100008BD007CFFF7B8B837B5457C04462DB1F4
:10702000207C03B0BDE83040FFF78EB8007C0191B2
:10703000FFF7BAF800280199F2DC284603B030BD0A
:1070400010B51421044600F064FD204610BD000078
:1070500010B54FF0000C0446084611464FF47A7202
:10706000C4E901C2044A22600122207462741A46F3
:10707000FFF762F8204610BD0C9C0D0013B50E4CB6
:107080002178BFF35B8F11F0010112D120460191ED
:10709000FDF712F8019960B1084A094B0948FFF75A
:1070A000D7FF2046FDF70DF8074A0849054800F0CC
:1070B0002BFD044802B010BDA8E60320ACE6032077
:1070C00030E70320B4E7032060E50320D56F0D000F
:1070D0007047F8B5064615460C468F18BC4206D0D8
:1070E000336814F8011B9B6830469847F6E728463A
:1070F000F8BD007C0022FFF77FB8007C0021FFF77D
:1071000083B8007C0021FFF787B8007C0021FFF7DF
:107110008BB8007C0021FFF78FB810B5142104460E
:1071200000F0F7FC204610BD10B54FF47A7304460A
:1071300008460021C4E90113034B23602074114663
:10714000FFF78AF8204610BD3C9C0D00007C002211
:10715000FFF732B80023007C1A461946FFF734B80F
:10716000007C0022FFF738B8C9B2FFF7F9BF007CF6
:107170000022FFF739B80121FFF7F9BF13B5036803
:107180008DF80710DC6B01224FF0FF330DF1070182
:10719000A04702B010BD10B40368DC6B4FF0FF33A2
:1071A000A4465DF8044B604713B5134602688DF89A
:1071B0000710D46B0DF107010122A04702B010BDEA
:1071C000704738B543691A68002A054610DAB3F8E3
:1071D0008620B3F884309A420AD103681B69984725
:1071E000044628B92B682846DB6A9847204638BDF4
:1071F0000120FCE743691868C043C00F704770471F
:10720000064B994210B500F10C0405D0084600F079
:1072100085FC002808BF0024204610BD989B0D0067
:1072200010B5AC21044600F074FC204610BDFCF7FC
:1072300036BF2DE9F0414FF0000886B01D46C0F87A
:10724000048004460E4617464146102202A801F06B
:10725000ABFB6B1C09D04FF47A70B5FBF0F3CDE9B2
:10726000023800FB135358430490606910230093C5
:10727000006802AB41F2050240F6FF71FEF7F4FF31
:10728000002807DAFFF764F903686360002006B09E
:10729000BDE8F0816069002300683A463146FFF797
:1072A00003F8031EEEDB1846F1E7000038B58469E9
:1072B0000A4B036005467CB16368013B63605BB9C0
:1072C000236820469B689847A368013BA3601BB9CD
:1072D00023682046DB689847284638BD989C0D00F7
:1072E00010B50446FFF7E2FF20461C2100F011FC18
:1072F000204610BD70B54D69054B04468C3544F8E9
:10730000043B06460FCD0FC42B682370304670BD7A
:10731000C89B0D0010B54369B3F88620B3F88430DC
:107320009A42044605D06369B3F88420134418795F
:1073300010BD03681B6998470028F4D14FF0FF3057
:10734000F6E710B54369B3F88620B3F884309A4263
:10735000044608D06369B3F88420511CA3F8841054
:107360001344187910BD03681B6998470028F1D1B0
:107370004FF0FF30F6E7F8B543691746B3F88620BB
:10738000B3F884309A4205460E4616D06969B1F8C2
:107390008430B1F88640E41ABC4228BF3C4604332E
:1073A00022461944304601F0F1FA6A69B2F8843095
:1073B0002344A2F884302046F8BD03681B6998472F
:1073C0000028E3D14FF0FF34F5E742690023A2F82B
:1073D00084304269A2F8863070472DE9F0411F469B
:1073E00003680C46DB6A8AB0054616469847237D3B
:1073F000D5F81480042B0CBF02200A20062201219C
:10740000FEF75AFFC8F800006B691B68002B08DA0A
:107410002B682846DB6A0024984720460AB0BDE85E
:10742000F0812846FFF7D1FFB7B1002303A9F8B2D6
:107430000393ADF81030FEF727FE0028E8D1686905
:1074400006230093006803AB41F20B0240F6FF7184
:10745000FEF70AFF0028DBD11C22002103A801F05F
:10746000A3FA237D042B1DD14FF407733046ADF8EA
:107470000C30FEF759FEADF80E006068FEF74CFECA
:1074800004906B691C22186803A9FEF7FDFE002812
:10749000BED104340FCC6D698C350FC523682B70B9
:1074A0000124BAE740F61C233046ADF80C30FEF755
:1074B0003BFE05AEADF80E00231D04F1140718685D
:1074C0005968324603C20833BB421646F7D1D8E7A3
:1074D00030B54269B2F886308BB004462BB1B2F8B1
:1074E00084209A4201D1FFF770FF61690868002883
:1074F00018DBB1F886507F2D14D804310823C5F16C
:1075000080022944FEF7C8FE002813DD6369B3F842
:1075100086200AB9A3F884206369B3F88620104452
:10752000A3F886006369B3F88600B3F88430C01A04
:107530000BB030BDFFF70CF803680B2BF2D0FFF750
:1075400007F803680B2BEDD020230025CDE9023589
:10755000FEF7FEFF03680193084B0949009302AA56
:107560002B463220FEF728FF63691868FEF784FE79
:1075700063694FF0FF321A60D4E700BF639C0D00CF
:107580005C9C0D0010B5436904461868002801DBB7
:10759000FEF772FE63694FF0FF321A6060691122D4
:1075A00000218C3001F000FA2046BDE81040FFF7C2
:1075B0000CBF10B5002304460160C0F88430883049
:1075C000FFF726FC204610BD73B500234FF47A72F6
:1075D000C0E901320E4A0361026043610446AC20F7
:1075E0000191FCF758FD051E05F10C0608D001239A
:1075F000C5E90133074B01992B603046FFF7D9FFEE
:107600002046C4E90565FFF7E0FE02B070BD00BF8B
:10761000989C0D007C9C0D0010B54FF0FF31044686
:10762000FFF7D2FF204610BD10B5044600680028C1
:1076300001DBFEF721FE204610BD0C30FFF7F4BF42
:107640002DE9F0439846036893B00D460024DB6AA9
:1076500006461746984728466B4622462146009420
:10766000FEF7CAFC0546002863D1009B002B4BD0D7
:107670005B69002B48D006A8FFF7CAFB009B5C693A
:107680006378022B04D1211D06A8FFF7C7F826E076
:107690000A2B24D11122294601A801F085F9A368FB
:1076A000002B38D004F108030DF1040C18341868CD
:1076B0005968624603C20833A3429446F7D10623B1
:1076C00001A90CA88DF81430FFF7B0FB0DF1340CB4
:1076D000BCE80F0007AC0FC4DCF80030237006A82C
:1076E000FFF7B6FB80B1336807ADD3F82090124B9B
:1076F0000C930FCD0DAC0FC42B6823703A46434654
:107700000CA93046C84705460098FEF76DFC284690
:1077100013B0BDE8F083E368002BC3D14FF6FF70D0
:10772000D4F81090FEF7F8FC8145BBD104F11401A8
:10773000AAE72546E8E700BFC89B0D000022406885
:107740001146FEF785BE002240681146FEF7A0BE36
:10775000002240681146FEF7ABBE40680022FEF7EB
:107760009FBE4068002281F00101FEF789BE002320
:1077700040681A461946FEF77BBE00224068114653
:10778000FEF756BE406800220221FEF759BE0023D4
:1077900040681A46FEF744BE024B04225A60024A71
:1077A0001A607047C8E70320E49C0D00002340687E
:1077B0001A46FEF735BE406800220221FEF740BEA1
:1077C000002240681146FEF733BE00224068114691
:1077D000FEF73EBE002340681A461946FEF740BE3B
:1077E000002340681A461946FEF742BE4068002151
:1077F000FEF766BE40680021FEF76ABE40680022C0
:1078000081F00101FEF73CBE40680022FEF748BE51
:10781000002240681146FEF74BBE00224068114628
:10782000FEF736BE2DE9F043002495B016460D460E
:107830000746FFF7EDFA214618220EA8009401F042
:10784000B3F84023CDE90C3421466B460CAA3046F0
:10785000FEF7D2FB044600284CD10246012168689D
:10786000FEF7F6FD0221804622466868FEF7F0FD2D
:10787000009E81462146002E3CD000293AD17368F3
:10788000022B03D00A2B11D0F669F4E7B8F1000FF0
:107890000AD0716906A8043107ADFFF709FB0FCDC7
:1078A0003C1D0FC42B6823704146EDE7B9F1000F72
:1078B00001D14946E8E77469102201A801F074F883
:1078C00006238DF8143001AD04F10803183418684C
:1078D00059682A4603C20833A3421546F7D101A9C5
:1078E00006A807ADFFF7A2FA0FCD3C1D0FC42B6809
:1078F0002370DEE70098FEF777FB384615B0BDE849
:10790000F0830000024B034A1A6000225A6070475D
:10791000D0E70320209D0D00232813B502D90020B5
:1079200002B010BDA0F10B03022B1AD8174C21781E
:10793000BFF35B8F11F001010BD120460191FCF7E1
:10794000BBFB019928B11248FEF756FE2046FCF712
:10795000B8FB0F4B1878FEF7CFFC0028DFD10120D1
:10796000DEE7012809D800F0A7F80021007CFEF727
:107970006BFC80F00100C0B2D2E709380128EED8D4
:10798000FFF77CFB007CFEF707FCF2E748E60320EC
:107990004CE60320232838B504460D460AD8FF29B3
:1079A00008D0FFF7B9FF28B129462046BDE8384086
:1079B000FEF732BB38BD38B504460D46FEF734FB42
:1079C000FF2810D0062804D84D2323FA00F0C3075F
:1079D00009D42046FFF7A0FF28B129462046BDE87C
:1079E0003840FEF729BB38BD10B50446FEF71CFB36
:1079F000031FDBB2012B08D92046FFF78DFF20B112
:107A00002046BDE81040FEF71FBB002010BD0D282A
:107A100010B504469CBF0E34A4B22046FFF77CFF8D
:107A200050B103212046FEF7EFFA032804D1204687
:107A3000BDE81040FEF718BB002010BD38B5044665
:107A40000D46FFF769FFF0B104212046FEF7DCFA8E
:107A5000042805D1A9B22046BDE83840FEF7FCBA9B
:107A600002212046FEF7D0FA02280CD12046FEF76C
:107A7000DBFA012801D0042805D129462046BDE8BB
:107A80003840FEF7F9BA38BD38B5002320254380C9
:107A9000142304460380856005610649284600F0EA
:107AA0003AF804496060284600F035F8E060204666
:107AB00038BD00BF549D0D0030B50F4D2978BFF380
:107AC0005B8F11F0010487B013D12846FCF7F4FA5C
:107AD00078B101A8FFF7D8FF01AA21460748FFF7B0
:107AE00023FB2846FCF7EDFA054A0649034800F057
:107AF0000BF8024807B030BDDCE70320E0E70320C5
:107B000060E50320D1700D000B460146184600F0D9
:107B10002FBFFCF7C4BAFCF7C0BA0000014900F05F
:107B2000F9B800BF709D0D007FB500241023CDE98A
:107B30000234036800949E698DF8044015466B4634
:107B40001268B0479DF8043003F00603062B03BF0C
:107B5000009B2B600120204604B070BD009890422D
:107B600014BF01200620704710B5034B0360044684
:107B700000F0CDF8204610BDB09D0D0010B50446B4
:107B8000FFF7F2FF20460821FFF7C3FF204610BD94
:107B90002DE9F0411F46DDE90834DDF818809845ED
:107BA0000646154607D1079900F0B4F818B165717B
:107BB0000020BDE8F0813946304600F0ABF80028DF
:107BC000F6D00123C4F800802571A371F0E738B521
:107BD00015461C4600F09EF820B10823E3600623FA
:107BE0002560237138BD73B505460C4601921E46CB
:107BF00000F090F850B9032E08D82368019A5B6909
:107C00002946204602B0BDE87040184702B070BD5A
:107C100010B5034B03600446FFF7A6FF204610BDD6
:107C2000109E0D0010B50446FFF7F2FF20460C2110
:107C3000FFF76FFF204610BDF7B5089F9742054636
:107C40000E4614460AD0A86802680897156A31469D
:107C50002246AC4603B0BDE8F040604719460193A8
:107C600000F058F8019B0028EDD0062003B0F0BDCD
:107C70002DE9F14F0D461946DDE90A4BDDE90CA669
:107C800081461746984600F045F890B1002D3460C3
:107C9000377109DB61198A450CBF06210121B171D9
:107CA000002001B0BDE8F08F0235F9D10123B37196
:107CB000F6E7544506D15946484600F02BF808B17E
:107CC0007771EDE7D9F808000368CDE90CA6CDE996
:107CD0000A4BDC693A4643462946A44601B0BDE852
:107CE000F04F60472DE9F04107460C4615461E4609
:107CF000FFF76DFF48B9B86803689F692A463346A5
:107D00002146BC46BDE8F0416047BDE8F0817047C0
:107D100000207047814208B50ED0406803782A2BB6
:107D20000CD049680B782A2B08BF013100F068FE9F
:107D3000B0FA80F0400908BD0120FCE70020FAE716
:107D400081F0004102E000BF83F0004330B54FEA0C
:107D500041044FEA430594EA050F08BF90EA020F79
:107D60001FBF54EA000C55EA020C7FEA645C7FEA0C
:107D7000655C00F0E2804FEA5454D4EB5555B8BF2F
:107D80006D420CDD2C4480EA020281EA030382EAA0
:107D9000000083EA010180EA020281EA0303362D32
:107DA00088BF30BD11F0004F4FEA01314FF4801C05
:107DB0004CEA113102D0404261EB410113F0004F17
:107DC0004FEA03334CEA133302D0524263EB4303CE
:107DD00094EA050F00F0A780A4F10104D5F1200E6C
:107DE0000DDB02FA0EFC22FA05F2801841F10001C7
:107DF00003FA0EF2801843FA05F359410EE0A5F19B
:107E000020050EF1200E012A03FA0EFC28BF4CF0CB
:107E1000020C43FA05F3C01851EBE37101F0004581
:107E200007D54FF0000EDCF1000C7EEB00006EEB8E
:107E30000101B1F5801F1BD3B1F5001F0CD3490818
:107E40005FEA30004FEA3C0C04F101044FEA44526F
:107E500012F5800F80F09A80BCF1004F08BF5FEAF6
:107E6000500C50F1000041EB045141EA050130BDD6
:107E70005FEA4C0C404141EB0101013C28BFB1F5E8
:107E8000801FE9D291F0000F04BF01460020B1FA33
:107E900081F308BF2033A3F10B03B3F120020CDA06
:107EA0000C3208DD02F1140CC2F10C0201FA0CF0E4
:107EB00021FA02F10CE002F11402D8BFC2F1200C49
:107EC00001FA02F120FA0CFCDCBF41EA0C019040FF
:107ED000E41AA2BF01EB0451294330BD6FEA040448
:107EE0001F3C1CDA0C340EDC04F11404C4F1200233
:107EF00020FA04F001FA02F340EA030021FA04F345
:107F000045EA030130BDC4F10C04C4F1200220FA9B
:107F100002F001FA04F340EA0300294630BD21FAD9
:107F200004F0294630BD94F0000F83F4801306BF9F
:107F300081F480110134013D4EE77FEA645C18BF93
:107F40007FEA655C29D094EA050F08BF90EA020F2A
:107F500005D054EA000C04BF1946104630BD91EA22
:107F6000030F1EBF0021002030BD5FEA545C05D125
:107F70004000494128BF41F0004130BD14F5800464
:107F80003CBF01F5801130BD01F0004545F0FE41D8
:107F900041F470014FF0000030BD7FEA645C1ABF0D
:107FA000194610467FEA655C1CBF0B46024650EA44
:107FB000013406BF52EA033591EA030F41F4002170
:107FC00030BD00BF90F0000F04BF0021704730B5F6
:107FD0004FF4806404F132044FF000054FF00001CB
:107FE00050E700BF90F0000F04BF0021704730B58C
:107FF0004FF4806404F1320410F0004548BF404261
:108000004FF000013EE700BF42004FEAE2014FEAB5
:1080100031014FEA02701FBF12F07F4393F07F4F90
:1080200081F06051704732F07F4208BF704793F093
:108030007F4F04BF41F40021704730B54FF46074A6
:1080400001F0004521F000411CE700BF50EA0102A9
:1080500008BF704730B54FF000050AE050EA010252
:1080600008BF704730B511F0004502D5404261EBC2
:1080700041014FF4806404F132045FEA915C3FF403
:10808000D8AE4FF003025FEADC0C18BF03325FEAA0
:10809000DC0C18BF033202EBDC02C2F1200300FA51
:1080A00003FC20FA02F001FA03FE40EA0E0021FA76
:1080B00002F11444BDE600BF70B54FF0FF0C4CF464
:1080C000E06C1CEA11541DBF1CEA135594EA0C0F16
:1080D00095EA0C0F00F0DEF82C4481EA030621EA51
:1080E0004C5123EA4C5350EA013518BF52EA03358C
:1080F00041F4801143F4801338D0A0FB02CE4FF03E
:108100000005E1FB02E506F00042E0FB03E54FF06D
:108110000006E1FB03569CF0000F18BF4EF0010E65
:10812000A4F1FF04B6F5007F64F5407404D25FEA61
:108130004E0E6D4146EB060642EAC62141EA555114
:108140004FEAC52040EA5E504FEACE2EB4F1FD0C56
:1081500088BFBCF5E06F1ED8BEF1004F08BF5FEAD4
:10816000500E50F1000041EB045170BD06F0004686
:1081700046EA010140EA020081EA0301B4EB5C0433
:10818000C2BFD4EB0C0541EA045170BD41F480112B
:108190004FF0000E013C00F3AB8014F1360FDEBF50
:1081A000002001F0004170BDC4F10004203C35DA2C
:1081B0000C341BDC04F11404C4F1200500FA05F3AF
:1081C00020FA04F001FA05F240EA020001F0004250
:1081D00021F0004110EBD37021FA04F642EB0601C6
:1081E0005EEA430E08BF20EAD37070BDC4F10C04F0
:1081F000C4F1200500FA04F320FA05F001FA04F2B4
:1082000040EA020001F0004110EBD37041F100019F
:108210005EEA430E08BF20EAD37070BDC4F12005AA
:1082200000FA05F24EEA020E20FA04F301FA05F212
:1082300043EA020321FA04F001F0004121FA04F2BA
:1082400020EA020000EBD3705EEA430E08BF20EA8A
:10825000D37070BD94F0000F0FD101F000464000C4
:1082600041EB010111F4801F08BF013CF7D041EA46
:10827000060195F0000F18BF704703F0004652004A
:1082800043EB030313F4801F08BF013DF7D043EA1B
:108290000603704794EA0C0F0CEA135518BF95EAD1
:1082A0000C0F0CD050EA410618BF52EA4306D1D158
:1082B00081EA030101F000414FF0000070BD50EA77
:1082C000410606BF1046194652EA430619D094EA01
:1082D0000C0F02D150EA013613D195EA0C0F05D1EB
:1082E00052EA03361CBF104619460AD181EA03013F
:1082F00001F0004141F0FE4141F470014FF00000F7
:1083000070BD41F0FE4141F4780170BD70B54FF091
:10831000FF0C4CF4E06C1CEA11541DBF1CEA135511
:1083200094EA0C0F95EA0C0F00F0A7F8A4EB0504F3
:1083300081EA030E52EA03354FEA013100F08880EA
:108340004FEA03334FF0805545EA131343EA1263B3
:108350004FEA022245EA111545EA10654FEA002668
:108360000EF000419D4208BF964244F1FD0404F521
:10837000407402D25B084FEA3202B61A65EB03057D
:108380005B084FEA32024FF480104FF4002CB6EB3A
:10839000020E75EB030E22BFB61A754640EA0C00BA
:1083A0005B084FEA3202B6EB020E75EB030E22BFFA
:1083B000B61A754640EA5C005B084FEA3202B6EB3B
:1083C000020E75EB030E22BFB61A754640EA9C00FA
:1083D0005B084FEA3202B6EB020E75EB030E22BFCA
:1083E000B61A754640EADC0055EA060E18D04FEA88
:1083F000051545EA16754FEA06164FEAC30343EA28
:1084000052734FEAC2025FEA1C1CC0D111F4801FF4
:108410000BD141EA00014FF000004FF0004CB6E7ED
:1084200011F4801F04BF01430020B4F1FD0C88BF8C
:10843000BCF5E06F3FF6AFAEB5EB030C04BFB6EB97
:10844000020C5FEA500C50F1000041EB045170BD8A
:108450000EF0004E4EEA113114EB5C04C2BFD4EBB7
:108460000C0541EA045170BD41F480114FF0000E3B
:10847000013C90E645EA060E8DE60CEA135594EAB7
:108480000C0F08BF95EA0C0F3FF43BAF94EA0C0FBA
:108490000AD150EA01347FF434AF95EA0C0F7FF42F
:1084A00025AF104619462CE795EA0C0F06D152EA83
:1084B00003353FF4FDAE1046194622E750EA410667
:1084C00018BF52EA43067FF4C5AE50EA41047FF478
:1084D0000DAF52EA43057FF4EBAE12E74FF0FF3CDD
:1084E00006E000BF4FF0010C02E000BF4FF0010CAE
:1084F0004DF804CD4FEA410C7FEA6C5C4FEA430C27
:1085000018BF7FEA6C5C1BD001B050EA410C0CBF75
:1085100052EA430C91EA030F02BF90EA020F0020D7
:10852000704710F1000F91EA030F58BF994208BF3E
:1085300090422CBFD8176FEAE37040F001007047FB
:108540004FEA410C7FEA6C5C02D150EA013C07D152
:108550004FEA430C7FEA6C5CD6D152EA033CD3D09D
:108560005DF8040B704700BF8446104662468C4697
:108570001946634600E000BF01B5FFF7B7FF0028CA
:1085800048BF10F1000F01BD4DF808EDFFF7F4FFF3
:108590000CBF012000205DF808FB00BF4DF808ED7E
:1085A000FFF7EAFF34BF012000205DF808FB00BFA1
:1085B0004DF808EDFFF7E0FF94BF012000205DF8C3
:1085C00008FB00BF4DF808EDFFF7CEFF94BF012078
:1085D00000205DF808FB00BF4DF808EDFFF7C4FF71
:1085E00034BF012000205DF808FB00BF4A0011D213
:1085F00012F5001211D20DD56FF47873B3EB6252FD
:108600000ED44FEAC12343F0004343EA505323FA08
:1086100002F070474FF00000704750EA013002D17D
:108620004FF0FF3070474FF00000704753B94AB920
:10863000002908BF00281CBF4FF0FF314FF0FF306A
:1086400000F08CB9ADF1080C6DE904CE00F024F80F
:10865000DDF804E0DDE9022304B07047D0B50C4B2F
:10866000002206460F46FFF727FDFFF7BFFF04462F
:10867000FFF7A8FC074B0022FFF71EFD02460B4642
:1086800030463946FFF760FBFFF7B0FF2146D0BD0B
:108690000000F03D0000F0412DE9F047089D044640
:1086A0008C46002B40F083808A42174647D9B2FAA5
:1086B00082F242B1C2F1200024FA00F091409740CA
:1086C00040EA010C94404FEA1748230CBCFBF8F633
:1086D0001FFA87FE08FB16C143EA014306FB0EF1B1
:1086E000994209D9FB1806F1FF3080F019819942AF
:1086F00040F21681023E3B445B1AA4B2B3FBF8F091
:1087000008FB103344EA034400FB0EFEA64509D9DA
:108710003C1900F1FF3380F00581A64540F202814B
:1087200002383C4440EA0640A4EB0E0400261DB18A
:10873000D4400023C5E900433146BDE8F08702B9C3
:10874000FFDEB2FA82F2002A50D1CB1B4FEA174E5D
:108750001FFA87F80126B3FBFEFC210C0EFB1C332D
:1087600041EA034108FB0CF38B4207D979180CF15D
:10877000FF3002D28B4200F2E9808446C91AA3B2CC
:10878000B1FBFEF00EFB101143EA014408FB00F8B8
:10879000A04507D93C1900F1FF3302D2A04500F2F1
:1087A000D9801846A4EB080440EA0C40BFE78B428E
:1087B00009D9002D00F0B1800026C5E9000130463E
:1087C0003146BDE8F087B3FA83F6002E4AD18B42DA
:1087D00002D3824200F2B880841A61EB03010120C7
:1087E0008C46002DA8D0C5E9004CA5E7C2F12003B6
:1087F00020FA03F6974001FA02F04FEA174ED940EB
:108800003043030CB1FBFEF61FFA87F80EFB16117E
:1088100043EA014306FB08F1994204FA02F409D93C
:10882000FB1806F1FF3C80F08D80994240F28A806F
:10883000023E3B445B1A81B2B3FBFEF00EFB1033E9
:1088400041EA034100FB08F38B4207D9791800F194
:10885000FF3C73D28B4271D902383944CB1A40EABB
:10886000064678E7C6F1200C03FA06F422FA0CF368
:108870001C4320FA0CF701FA06F34FEA144E21FAD2
:108880000CF11F433B0CB1FBFEF91FFA84F80EFB01
:10889000191143EA014109FB08FA8A4502FA06F276
:1088A00000FA06F308D9611809F1FF3048D28A4569
:1088B00046D9A9F102092144A1EB0A01BFB2B1FBDB
:1088C000FEF00EFB101147EA014700FB08F8B8451F
:1088D00007D9E71900F1FF312ED2B8452CD902385B
:1088E000274440EA0940A7EB0807A0FB02894F454F
:1088F000C64649461AD317D05DB1B3EB0E0267EBFB
:10890000010707FA0CFCF2404CEA0202F740C5E905
:10891000002700263146BDE8F0872E4628460BE7A3
:108920000646E9E61846FDE64345E5D2B8EB020EF9
:1089300069EB04010138DFE70846D2E760468DE7BE
:108940008146B9E7664675E730464AE7ACF1020C66
:10895000394413E702383C4424E700BF704700BFA6
:108960000A22002100F0F4B80A22002100F0F0B839
:1089700010B5054C13462CB10A4601460220AFF350
:10898000008010BD2046FCE7000000000A44914230
:1089900000F1FF3300D1704710B511F8014B03F817
:1089A000014F9142F9D110BD02440346934200D1D8
:1089B000704703F8011BF9E738B50D4B1D68AB6B29
:1089C00004467BB91820FDF79BFD0A4A0A4BA863B1
:1089D000C0E90023094B83600B238381012200231C
:1089E000C0E90423AB6B00221C615A6138BD00BF93
:1089F000F8E403200E33CDAB34126DE6ECDE050057
:108A000010F8012B11F8013B012A28BF9A42F7D038
:108A1000D01A7047034611F8012B03F8012B002AE6
:108A2000F9D17047034613F8012B002AFBD1181A1D
:108A30000138704710B50139034632B111F8014FC2
:108A400003F8014B013A002CF7D11A44002193425C
:108A500000D110BD03F8011BF9E700002DE9F04734
:108A60003A4E86468C4660461CF8014BA55D15F0D3
:108A70000805F8D12D2C33D19CF800404FF00108A7
:108A800000F1020C002B5CD0102B0CD1302C0AD141
:108A90009CF8000000F0DF0058284DD19CF8014000
:108AA00010230CF1020C08F10047013F0026B7FB30
:108AB000F3F9304603FB197AA4F13005092D18D8D3
:108AC0002C46A34224DD751C07D081451DD301D15E
:108AD000A2451ADB00FB034001261CF8014BEBE723
:108AE0002B2C08BF9CF80040A84608BF00F1020CE0
:108AF000C8E7A4F14105192D01D8373CE1E7A4F1FD
:108B00006105192D04D8573CDBE74FF0FF36E4E749
:108B1000731C06D12223CEF80030384642B9BDE896
:108B2000F087B8F1000F00D04042002AF7D00EB114
:108B30000CF1FF311160F2E73024002BB3D1082390
:108B4000B1E7302CA4D00A23ADE700BF4A9E0D0048
:108B500013460A46014602480068FFF77FBF00BF80
:108B6000F8E4032021400D005D400D0085400D001C
:108B700089400D0000000000256900256C6900692E
:108B80006E006F75740070776D0064770061770018
:108B9000636E6A58446E5F743776637333492D5041
:108BA000522D6A62536F6247645F5F6A32714D395A
:108BB0000043656C736975733A20000A004661686A
:108BC00072656E686569743A2000626C6E6B696EDE
:108BD000660076657200312E302E3000682D626599
:108BE000617400343500627566662D696E0031303F
:108BF000323400646576005061727469636C65009C
:108C00006275696C64004A756C2020352032303200
:108C1000312030343A33303A353200000064656632
:108C200061756C7420004D5342004C5342003C531C
:108C3000504953657474696E677320646566617525
:108C40006C743E003C53504953657474696E67738D
:108C50002025732575202573204D4F444525753EED
:108C60000000000000003E5B4F5B3E3E6B4F6B3EE2
:108C70001C3E7C3E1C183C7E3C181C577D571C1C1F
:108C80005E7F5E1C00183C1800FFE7C3E7FF00187A
:108C9000241800FFE7DBE7FF30483A060E26297963
:108CA0002926407F050507407F05253F5A3CE73CC4
:108CB0005A7F3E1C1C08081C1C3E7F14227F221475
:108CC0005F5F005F5F06097F017F006689956A60CC
:108CD0006060606094A2FFA29408047E04081020E3
:108CE0007E201008082A1C08081C2A08081E1010DC
:108CF00010100C1E0C1E0C30383E3830060E3E0E86
:108D000006000000000000005F00000007000700F0
:108D1000147F147F14242A7F2A12231308646236D6
:108D2000495620500008070300001C224100004162
:108D3000221C002A1C7F1C2A08083E08080080709C
:108D400030000808080808000060600020100804CF
:108D5000023E5149453E00427F4000724949494622
:108D60002141494D331814127F1027454545393CA0
:108D70004A4949314121110907364949493646498D
:108D800049291E00001400000040340000000814AF
:108D90002241141414141400412214080201590928
:108DA000063E415D594E7C1211127C7F494949367D
:108DB0003E414141227F4141413E7F494949417FF6
:108DC000090909013E414151737F0808087F0041AC
:108DD0007F41002040413F017F081422417F4040F5
:108DE00040407F021C027F7F0408107F3E414141CA
:108DF0003E7F090909063E4151215E7F0919294636
:108E0000264949493203017F01033F4040403F1F4B
:108E10002040201F3F4038403F6314081463030480
:108E20007804036159494D43007F414141020408E0
:108E30001020004141417F040201020440404040B3
:108E400040000307080020545478407F28444438E9
:108E50003844444428384444287F38545454180033
:108E6000087E090218A4A49C787F080404780044B2
:108E70007D40002040403D007F1028440000417F9D
:108E800040007C047804787C080404783844444426
:108E900038FC1824241818242418FC7C080404081E
:108EA000485454542404043F44243C4040207C1C37
:108EB0002040201C3C4030403C44281028444C902A
:108EC00090907C4464544C44000836410000007784
:108ED0000000004136080002010204023C2623265D
:108EE0003C1EA1A161123A4040207A385454555991
:108EF00021555579412254547842215554784020C7
:108F0000545579400C1E52721239555555593954E1
:108F100054545939555454580000457C4100024579
:108F20007D420001457C407D1211127DF0282528EC
:108F3000F07C545545002054547C547C0A097F49E8
:108F400032494949323A4444443A324A4848303A2C
:108F50004141217A3A42402078009DA0A07D3D42C7
:108F600042423D3D4040403D3C24FF2424487E4950
:108F700043662B2FFC2F2BFF0929F620C0887E0982
:108F80000320545479410000447D413048484A321E
:108F9000384040227A007A0A0A727D0D19317D2606
:108FA00029292F28262929292630484D40203808EC
:108FB00008080808080808382F10C8ACBA2F10286D
:108FC00034FA00007B000008142A142222142A1408
:108FD000085500550055AA55AA55AAFF55FF55FF3B
:108FE000000000FF00101010FF00141414FF001008
:108FF00010FF00FF1010F010F0141414FC001414F3
:10900000F700FF0000FF00FF1414F404FC14141711
:10901000101F10101F101F1414141F00101010F038
:10902000000000001F101010101F10101010F01082
:10903000000000FF101010101010101010FF100092
:109040000000FF140000FF00FF00001F10170000C9
:10905000FC04F414141710171414F404F40000FFA3
:1090600000F714141414141414F700F7141414173C
:109070001410101F101F141414F4141010F010F01A
:1090800000001F101F0000001F14000000FC14004F
:1090900000F010F01010FF10FF141414FF14101043
:1090A000101F00000000F010FFFFFFFFFFF0F0F0C6
:1090B000F0F0FFFFFF0000000000FFFF0F0F0F0F99
:1090C0000F3844443844FC4A4A4A347E02020606B9
:1090D000027E027E0263554941633844443C0440A9
:1090E0007E201E2006027E020299A5E7A5991C2A71
:1090F000492A1C4C7201724C304A4D4D3030487830
:109100004830BC625A463D3E494949007E01010152
:109110007E2A2A2A2A2A44445F444440514A444031
:1091200040444A51400000FF0103E080FF00000876
:10913000086B6B083612362436060F090F0600003E
:1091400018180000001010003040FF0101001F013E
:10915000011E00191D1712003C3C3C3C00000000A1
:1091600000000000000000000000000000000000FF
:1091700000000000C9530D00A56A0D00A5400D00B8
:10918000D14D0D00D34D0D00054E0D00E14D0D00EC
:10919000F34D0D00154D0D00D14D0D00FD4F0D008F
:1091A000774F0D001D4E0D005B4E0D00954E0D00CE
:1091B000DB4E0D00794F0D00F74E0D000000000052
:1091C00000000000D9540D00F9540D00C9530D00E2
:1091D000A56A0D00E1560D00D14D0D00D34D0D00D7
:1091E000054E0D00E14D0D00F34D0D00154D0D0028
:1091F000D14D0D00FD4F0D009B580D002F5E0D0051
:10920000E15D0D00954E0D00DB4E0D00794F0D0018
:10921000F74E0D000000000000000000C14C0D00E2
:10922000954C0D00974C0D000000000000018000DF
:1092300000000000000000000380000000000000AB
:1092400000000007C000000000000000000007C090
:109250000000000000000000000FC000000000003F
:10926000000000001FE00000000000000000001FE0
:10927000E00000000000000000003FE000000000EF
:1092800000000000003FF0000000000000000000AF
:109290007FF0000000000000001FF87FF0000000D9
:1092A000000000003FFE7FF0000000000000003FD3
:1092B000FF7FF0000000000000001FFFFBE0000047
:1092C00000000000000FFFF9FFC0000000000000D8
:1092D0000FFFF9FFF800000000000007FFF1FFFF9B
:1092E00000000000000003FC73FFFF80000000008E
:1092F0000001FE3FFFFF80000000000000FF1E0F86
:10930000FF000000000000007FFE1FFC00000000C6
:109310000000003FFFFFF8000000000000000FDF2A
:10932000FFE0000000000000001F19FFC000000067
:10933000000000003F3CFF00000000000000007E35
:109340007CF800000000000000007FFE7C000000B0
:109350000000000000FFFFFC000000000000000013
:10936000FFFFFE0000000000000000FFFFFE000005
:10937000000000000001FFEFFE0000000000000000
:1093800001FFCFFE0000000000000003FF07FE0009
:1093900000000000000003FC07FE000000000000C9
:1093A0000003F003FE00000000000000018000FE4A
:1093B000000000000000000000007E00000000002F
:1093C00000000000003E000000000000000000005F
:1093D0000C000000000000078000FC000003C0003B
:1093E0000000078001FC000003C0000000078001AE
:1093F000FC000003C0000000078001E00000001E28
:10940000000000078001E00000001E007FE3F79FDE
:10941000F9FDE7787BDFC0FFF7FFBFFDFDFF787B3D
:10942000DFC0FFF7FFBFFDFDFF787BDFC0F0F787F0
:10943000BC3DE1FF787BDE00F0F787BC3DE1F078D2
:109440007BDE0000F787803DE1E0787BDE007FF780
:10945000879FFDE1E0787BDE00FFF787BFFDE1E05D
:10946000787BDE00F0F787BC3DE1E0787BDE00F042
:10947000F787BC3DE1E0787BDE00F0F787BC3DE19B
:10948000E0787BDE00FFF7FFBFFDE1E07FFBDFC0A0
:10949000FFF7FFBFFDE1E07FFBDFC07CF3F39F3D03
:1094A000E1E03E7BCFC000000000000000000000B3
:1094B00000FFFFFFFFFFFFFFFFFFFFC0FFFFFFFFFA
:1094C000FD68DB111A31C0FFFFFFFFFD2B5AFB6A5D
:1094D000EFC0FFFFFFFFFD4B5B3B1A33C0FFFFFFF9
:1094E000FFFD6B5BDB6AFDC0000060000000000058
:1094F000000000000000000000E00000000000008C
:109500000000000000000001E0000000000000007A
:1095100000000000000001F000000000000000005A
:10952000000000000003F000000000000000000048
:109530000000000007F00000000000000000000034
:1095400000000007F800000000000000000000001C
:1095500000000FF800000003C0007E000001E000E2
:109560007F0FF800000003C000FE000001E000FFD4
:10957000EFF800000003C000FE000001E000FFFF64
:10958000F800000003C000F00000000F007FFE7F25
:10959000C0000003C000F00000000F003FFE7FF895
:1095A0003FF1FBCFFCFEF3BC3DEFE01FFE7FFF7FF2
:1095B000FBFFDFFEFEFFBC3DEFE01FC6FFFF7FFBB2
:1095C000FFDFFEFEFFBC3DEFE00FE3C7FE787BC38D
:1095D000DE1EF0FFBC3DEF0007FF87FC787BC3DE9B
:1095E0001EF0F83C3DEF0001FFFFF0007BC3C01E02
:1095F000F0F03C3DEF0001F37FE03FFBC3CFFEF016
:10960000F03C3DEF0003E33F807FFBC3DFFEF0F063
:109610003C3DEF0007E73C00787BC3DE1EF0F03CEA
:109620003DEF0007FFBE00787BC3DE1EF0F03C3D3F
:10963000EF0007FFFE00787BC3DE1EF0F03C3DEF3D
:10964000000FFFFE007FFBFFDFFEF0F03FFDEFE0CD
:109650000FFFFF007FFBFFDFFEF0F03FFDEFE00FAD
:10966000F9FF003E79F9CF9EF0F01F3DE7E01FF1D2
:10967000FF0000000000000000000000001F80FF4D
:10968000007FFFFFFFFFFFFFFFFFFFE01C007F00E9
:109690007FFFFFFFFEB46D888D18E000001F007F84
:1096A000FFFFFFFE95AD7DB577E000000F007FFF67
:1096B000FFFFFEA5AD9D8D19E0000006007FFFFFB6
:1096C000FFFEB5ADEDB57EE000000000000000003B
:1096D000B5560D00CD560D00C9530D00A56A0D00FD
:1096E000E1560D00D14D0D00D34D0D00054E0D007E
:1096F000E14D0D00F34D0D00154D0D00D14D0D0048
:10970000FD4F0D009B580D002F5E0D00E15D0D001B
:10971000954E0D00DB4E0D00794F0D00F74E0D00FC
:109720000080C0E0F0F8FCFE000103070F1F3F7F40
:10973000AED580A8D300408D2000A1C8DB40A4A6F0
:109740002EAFDA02818FDA1281DA02812200FF2144
:1097500000000000B95F0D00B95F0D00B95F0D009A
:10976000B95F0D00B95F0D00B95F0D00B95F0D0065
:10977000B95F0D00B95F0D00B95F0D00B95F0D0055
:10978000B95F0D00B95F0D00B95F0D00B95F0D0045
:10979000B95F0D00B95F0D00B95F0D00B95F0D0035
:1097A000B95F0D00B95F0D00B95F0D00B95F0D0025
:1097B000B95F0D00B95F0D00B95F0D00B95F0D0015
:1097C000B95F0D00B95F0D00B95F0D00B95F0D0005
:1097D000B95F0D00B95F0D00B95F0D00B95F0D00F5
:1097E000B95F0D00B95F0D00B95F0D00B95F0D00E5
:1097F000B95F0D00B95F0D00B95F0D00B95F0D00D5
:10980000B95F0D00B95F0D00B95F0D00B95F0D00C4
:10981000B95F0D00B95F0D00B95F0D00B95F0D00B4
:10982000B95F0D00B95F0D00B95F0D00B95F0D00A4
:10983000B95F0D00B95F0D00B95F0D00B95F0D0094
:10984000B95F0D00B95F0D00B95F0D00B95F0D0084
:10985000B95F0D00B95F0D00B95F0D00B95F0D0074
:10986000B95F0D00B95F0D00B95F0D00B95F0D0064
:10987000B95F0D00B95F0D00B95F0D00B95F0D0054
:10988000B95F0D00B95F0D00B95F0D00B95F0D0044
:10989000B95F0D00B95F0D00B95F0D00B95F0D0034
:1098A000B95F0D00B95F0D00B95F0D00B95F0D0024
:1098B000B95F0D00B95F0D00B95F0D00B95F0D0014
:1098C000B95F0D00B95F0D00B95F0D00B95F0D0004
:1098D000B95F0D00B95F0D00B95F0D00B95F0D00F4
:1098E000B95F0D00B95F0D00B95F0D00B95F0D00E4
:1098F000B95F0D00B95F0D00B95F0D00B95F0D00D4
:10990000B95F0D00B95F0D00B95F0D00B95F0D00C3
:10991000B95F0D00B95F0D00B95F0D00B95F0D00B3
:10992000B95F0D00B95F0D00B95F0D00B95F0D00A3
:10993000B95F0D00B95F0D00B95F0D00B95F0D0093
:10994000B95F0D00B95F0D00B95F0D00B95F0D0083
:10995000B95F0D00BB5F0D00BB5F0D00BB5F0D006D
:10996000BB5F0D00BB5F0D00BB5F0D00BB5F0D005B
:10997000BB5F0D00BB5F0D00BB5F0D00BB5F0D004B
:10998000BB5F0D00BB5F0D00BB5F0D00BB5F0D003B
:10999000BB5F0D00BB5F0D00BB5F0D00BB5F0D002B
:1099A000BB5F0D00BB5F0D00BB5F0D00BB5F0D001B
:1099B000BB5F0D00BB5F0D00BB5F0D00BB5F0D000B
:1099C000BB5F0D00BB5F0D00BB5F0D00BB5F0D00FB
:1099D000BB5F0D00BB5F0D00BB5F0D00BB5F0D00EB
:1099E000BB5F0D00BB5F0D00BB5F0D00BB5F0D00DB
:1099F000BB5F0D00BB5F0D00BB5F0D00BB5F0D00CB
:109A0000BB5F0D00BB5F0D00BB5F0D00BB5F0D00BA
:109A1000BB5F0D00BB5F0D00BB5F0D00BB5F0D00AA
:109A2000BB5F0D00BB5F0D00BB5F0D00BB5F0D009A
:109A3000BB5F0D00BB5F0D00BB5F0D00BB5F0D008A
:109A4000BB5F0D00BB5F0D00BB5F0D00BB5F0D007A
:109A5000BB5F0D00BB5F0D00BB5F0D00BB5F0D006A
:109A6000BB5F0D00BB5F0D00BB5F0D00BB5F0D005A
:109A7000BB5F0D00BB5F0D00BB5F0D00BB5F0D004A
:109A8000BB5F0D00BB5F0D00BB5F0D00BB5F0D003A
:109A9000BB5F0D00BB5F0D00BB5F0D00BB5F0D002A
:109AA000BB5F0D00BB5F0D00BB5F0D00BB5F0D001A
:109AB000BB5F0D00BB5F0D00BB5F0D00BB5F0D000A
:109AC000BB5F0D00BB5F0D00BB5F0D00BB5F0D00FA
:109AD000BB5F0D00BB5F0D00BB5F0D00BB5F0D00EA
